:0400000002021E32A8
:01000B0032C2
:0100130032BA
:01001B0032B2
:0100230032AA
:01002B0032A2
:01003300329A
:01003B003292
:030043000206555D
:01004B003282
:01005300327A
:01005B003272
:01006300326A
:01006B003262
:01007300325A
:01007B003252
:01008300324A
:01008B003242
:01009300323A
:01009B003232
:0100A300322A
:0100AB003222
:0100B300321A
:0100BB003212
:0100C300320A
:0100CB003202
:0100D30032FA
:0100DB0032F2
:0100E30032EA
:0100EB0032E2
:0100F30032DA
:0100FB0032D2
:0101030032C9
:01010B0032C1
:0101130032B9
:03011B00020430AB
:0101230032A9
:01012B0032A1
:010133003299
:01013B003291
:010143003289
:01014B003281
:010153003279
:01015B003271
:010163003269
:01016B003261
:010173003259
:01017B003251
:010183003249
:01018B003241
:010193003239
:01019B003231
:0101A3003229
:0101AB003221
:0101B3003219
:0101BB003211
:0101C3003209
:0101CB003201
:0101D30032F9
:0301DB0002050A10
:0101E30032E9
:0101EB0032E1
:0101F30032D9
:0101FB0032D1
:0102030032C8
:01020B0032C0
:0102130032B8
:03021B00020331AA
:03028F00020292D6
:0502920012029780FE3E
:0C0297007508FF758E00758DFC759800D1
:0A02A30075C000750E00750F06E42B
:0902AD00F51090002175F04012DB
:0502B60006F67A218A22
:0502BB00277528007505
:0C02C000294075C20175D30A75DB00757A
:0E02CC00C800758902E4A28C33F58875A8D2AB
:0602DA0075E80153A5E7E1
:0402E00075760975B1
:0602E400770075784090E0
:0E02EA00000875F0401205B4C293B2947582FC
:0602F8005012069080E2A6
:040277007527217551
:06027B0028007529407502
:03028100332A75A8
:06028400340075354075E1
:02028A006BFF08
:0702FE00AA82AB0EAC0FADAC
:03030500107E0067
:0C030800C3EE951150158B828C838DF094
:0E03140012074BFFA3AB82AC83EF28F80E80DC
:01032200E5F5
:08032300E8B502047401800139
:01032B00E4ED
:05032C00F58224FF2210
:0E033100C0E0C0F0C082C083C002C003C004A0
:0E033F00C005C006C007C000C001C0D075D008
:0A034D0000E5C820E76DAA27AB28E1
:0B035700AC298A828B838CF0E5C91270
:0703620007327421FAC39574
:0A03690027FAE49528FBC3EA940389
:0B037300EB64809480500B0527E4B57C
:04037E002702052825
:0303820002041260
:060385008525827A228A20
:05038B000E750F007566
:060390001040751103127C
:0603960002FE501A756F13
:05039C004575700075BD
:0503A1007140C2009054
:0E03A600002175F04012050BE4A29433F5908F
:0503B4007A218A277583
:0703B9002800752940805265
:0903C000E56B20E74D8561C97A67
:0503C900627B007C4096
:0A03CE00EAB46A0AEBB40006ECB4CE
:0403D8004002802A35
:0A03DC00EA24FFF56CEB34FFF56D29
:0C03E6008C6E8A828B838CF012074BFD1A
:0A03F200A3AA82AB83856C82856D9F
:0A03FC0083856EF0ED12073280C811
:0C0406008A828B838CF0E4120732156BA5
:0E0412005391EFD0D0D001D000D007D006D04B
:0E04200005D004D003D002D083D082D0F0D01B
:02042E00E032BA
:0E043000C0E0C0F0C082C083C002C003C004A0
:0E043E00C005C006C007C000C001C0D075D008
:0A044C0000E59830E056AA33AB3407
:0B045600AC358A828B838CF0E5C91264
:070461000732742AFAC3956B
:0A04680033FBE49534FCC3EB94066B
:0B047200EC64809480500A0533E4B570
:06047D0033240534802049
:060483008A337534007598
:0604890035408532827A45
:04048F002A8A0E7532
:060493000F00751040751A
:0A04990011081202FE500363A001D7
:0504A3005398FE8047A4
:0504A800AA3AAB3BACD9
:0C04AD003CBA0008BB0005BC0002803314
:0504B9000ABA00010B6E
:0504BE008A3A8B3B8C23
:0404C3003CAD3AAE64
:0604C7003BAF3CC3EA95C7
:0604CD0037EB9538EC95B9
:0C04D30039500D8D828E838FF012074B84
:0404DF00F599800902
:0704E300753A00753B00753E
:0204EA003C00D4
:0304EC005398FD25
:0E04EF00D0D0D001D000D007D006D005D00468
:0D04FD00D003D002D083D082D0F0D0E03206
:01050A0032BE
:08050B0085827285837385F07F
:0505130074E56FC395C3
:0505180072FDE5709585
:05051D0073FE8D75E581
:0C0522006BFE3395E0FF7409C39EFEE4FD
:0C052E009FFFAD757A00C3ED9EEA64806B
:09053A008FF063F08095F0507021
:0A054300E4A20033245FF88602EA08
:0A054D0030E76320001085728285FC
:0605570073838574F012AD
:06055D00074BF599800E2A
:070563008572828573838518
:07056A0074F012074BF5C10C
:0A057100E4A20033FB75F00AA42495
:0C057B004BFB74012A2BFB7A007C4074BF
:07058700012572F50EE435B9
:04058E0073F50F856D
:03059200741015CD
:03059500758575F4
:0A059800117512008B828A838CF02B
:0805A20012069EE4A2003324BE
:0905AA005FF88602E5752AA6E05F
:0105B3002225
:0C05B400AA82AB83ACF0E576C39AFDE5AB
:0A05C000779BE56BFE3395E0FF74B6
:0E05CA0009C39EFEE49FFF8D007900C3E89EEA
:0D05D800E964808FF063F08095F0506DE5D0
:0B05E5006B30E7408A828B838CF012A1
:0C05F000074BF5C9A3AA82AB8374012558
:0A05FC006B2461FE7F0078401D8D26
:05060600117512008ACD
:04060B000E8B0F8CB7
:0C060F00108E828F8388F0C002C003C0F0
:0E061B0004C00512069ED005D004D003D00204
:0A0629007401256B2461FE7F007848
:07063300408D117512008AD1
:04063A000E8B0F8C88
:0C063E00108E828F8388F0C00512069E8B
:07064A00D005ED256BF56BF7
:010651002286
:03028C00750900F1
:0306520005092275
:0E065500C0E0C0F0C082C083C002C003C00479
:0E066300C005C006C007C000C001C0D075D0E1
:0E06710000120652D0D0D001D000D007D00623
:0E067F00D005D004D003D002D083D082D0F0BA
:03068D00D0E03288
:02069000AA823C
:02069200780FDF
:0206940079F4F7
:06069600D9FED8FADAF6E5
:02069C00222218
:06024D00E4787FF6D8FD05
:0A069E00AA82AB83ACF08A138B1420
:0506A8008C15A80EA94D
:0406AD000FAD1088F5
:0406B1001689178D02
:0406B50018A811A9C7
:0106B900122E
:0906BA008805890618B8FF011932
:0A06C300ED4E602585168285178331
:0A06CD008518F012074BFDA385828B
:0A06D700168583178A828B838CF04E
:0B06E100ED120732A3AA82AB8380CE8B
:0706EC00851382851483854C
:0306F30015F022DD
:0806F60085821185831285F055
:0406FE0013AD11AE79
:0407020012AF13A877
:030706000FA91028
:090709008802890318B8FF0119E8
:0C071200EA4B60128D828E838FF0E50EA2
:0A071E00120732A3AD82AE8380E122
:070728008511828512838513
:03072F0013F022A2
:08022B007900E94400601B7A30
:050233000090076B784C
:030238000075A0AE
:0A023B0000E493F2A308B8000205E6
:08024500A0D9F4DAF275A0FF64
:0E07320020F71030F6118883A88220F507F614
:05074000A88375830091
:010745002291
:03074600F280F747
:02074900F0229C
:080253007800E84400600A791C
:03025B000075A08B
:06025E0000E4F309D8FCE6
:080264007800E84400600C7909
:0B026C0000900000E4F0A3D8FCD9FAD9
:03021E00758118CF
:0A022100120767E5826003020292F3
:0E074B0020F71430F6148883A88220F507E604
:06075900A8837583002255
:03075F00E280F73E
:03076200E49322FB
:02076500E02290
:040767007582002275
:00000001FF
