:0400000002021E32A8
:01000B0032C2
:0100130032BA
:01001B0032B2
:0100230032AA
:01002B0032A2
:01003300329A
:01003B003292
:030043000206832F
:01004B003282
:01005300327A
:01005B003272
:01006300326A
:01006B003262
:01007300325A
:01007B003252
:01008300324A
:01008B003242
:01009300323A
:01009B003232
:0100A300322A
:0100AB003222
:0100B300321A
:0100BB003212
:0100C300320A
:0100CB003202
:0100D30032FA
:0100DB0032F2
:0100E30032EA
:0100EB0032E2
:0100F30032DA
:0100FB0032D2
:0101030032C9
:01010B0032C1
:0101130032B9
:03011B0002045E7D
:0101230032A9
:01012B0032A1
:010133003299
:01013B003291
:010143003289
:01014B003281
:010153003279
:01015B003271
:010163003269
:01016B003261
:010173003259
:01017B003251
:010183003249
:01018B003241
:010193003239
:01019B003231
:0101A3003229
:0101AB003221
:0101B3003219
:0101BB003211
:0101C3003209
:0101CB003201
:0101D30032F9
:0301DB00020538E2
:0101E30032E9
:0101EB0032E1
:0101F30032D9
:0101FB0032D1
:0102030032C8
:01020B0032C0
:0102130032B8
:03021B0002035F7C
:03028F00020292D6
:0502920012029780FE3E
:0C0297007508FF7A007B00758E00758DE5
:0B02A300FC75980075C000750E00751A
:0602AE000F06E4F51090BC
:0E02B400002175F040C002C003120724D003E1
:0702C200D0027C218C27759E
:0A02C900280075294075C20175D3A5
:0E02D3000A75DB0075C800758902E4A28C3341
:0E02E100F58875A8D275E80153A6DF53A5EB8A
:0402EF0075760975A2
:0602F300770075784090D1
:0E02F900000875F040C002C0031205E2D003F9
:0E030700D002C2A5C374059AE49B5010C292A6
:0E031500C3740A9AE49B5006D2927A007B00D1
:09032300B2940ABA00C60B80C3B3
:040277007527217551
:06027B0028007529407502
:03028100332A75A8
:06028400340075354075E1
:02028A006BFF08
:07032C00AA82AB0EAC0FAD7D
:03033300107E0039
:0C033600C3EE951150158B828C838DF066
:0E034200120779FFA3AB82AC83EF28F80E8080
:01035000E5C7
:08035100E8B50204740180010B
:01035900E4BF
:05035A00F58224FF22E2
:0E035F00C0E0C0F0C082C083C002C003C00472
:0E036D00C005C006C007C000C001C0D075D0DA
:0A037B0000E5C820E76DAA27AB28B3
:0B038500AC298A828B838CF0E5C91242
:0703900007607421FAC39518
:0A03970027FAE49528FBC3EA94035B
:0B03A100EB64809480500B0527E4B54E
:0403AC0027020528F7
:0303B00002044004
:0603B3008525827A228AF2
:0503B9000E750F007538
:0603BE001040751103124E
:0603C400032C501A756FB6
:0503CA0045757000758F
:0503CF007140C2009026
:0E03D400002175F040120539E4A29433F59033
:0503E2007A218A277555
:0703E7002800752940805237
:0903EE00E56B20E74D8561C97A39
:0503F700627B007C4068
:0A03FC00EAB46A0AEBB40006ECB4A0
:040406004002802A06
:0A040A00EA24FFF56CEB34FFF56DFA
:0C0414008C6E8A828B838CF0120779FDBD
:0A042000A3AA82AB83856C82856D70
:0A042A0083856EF0ED12076080C8B4
:0C0434008A828B838CF0E4120760156B49
:0E0440005391EFD0D0D001D000D007D006D01D
:0E044E0005D004D003D002D083D082D0F0D0ED
:02045C00E0328C
:0E045E00C0E0C0F0C082C083C002C003C00472
:0E046C00C005C006C007C000C001C0D075D0DA
:0A047A0000E59830E056AA33AB34D9
:0B048400AC358A828B838CF0E5C91236
:07048F000760742AFAC3950F
:0A04960033FBE49534FCC3EB94063D
:0B04A000EC64809480500A0533E4B542
:0604AB003324053480201B
:0604B1008A33753400756A
:0604B70035408532827A17
:0404BD002A8A0E7504
:0604C1000F0075104075EC
:0A04C700110812032C500363A0017A
:0504D1005398FE804776
:0504D600AA3AAB3BACAB
:0C04DB003CBA0008BB0005BC00028033E6
:0504E7000ABA00010B40
:0504EC008A3A8B3B8CF5
:0404F1003CAD3AAE36
:0604F5003BAF3CC3EA9599
:0604FB0037EB9538EC958B
:0C05010039500D8D828E838FF012077927
:04050D00F5998009D3
:07051100753A00753B00750F
:020518003C00A5
:03051A005398FDF6
:0E051D00D0D0D001D000D007D006D005D00439
:0D052B00D003D002D083D082D0F0D0E032D7
:010538003290
:0805390085827285837385F051
:0505410074E56FC39595
:0505460072FDE5709557
:05054B0073FE8D75E553
:0C0550006BFE3395E0FF7409C39EFEE4CF
:0C055C009FFFAD757A00C3ED9EEA64803D
:090568008FF063F08095F05070F3
:0A057100E4A20033245FF88602EADA
:0A057B0030E76320001085728285CE
:0605850073838574F0127F
:06058B000779F599800ECE
:0705910085728285738385EA
:0705980074F0120779F5C1B0
:0A059F00E4A20033FB75F00AA42467
:0C05A9004BFB74012A2BFB7A007C407491
:0705B500012572F50EE4358B
:0405BC0073F50F853F
:0305C0007410159F
:0305C300758575C6
:0A05C600117512008B828A838CF0FD
:0805D0001206CCE4A200332462
:0905D8005FF88602E5752AA6E031
:0105E10022F7
:0C05E200AA82AB83ACF0E576C39AFDE57D
:0A05EE00779BE56BFE3395E0FF7488
:0E05F80009C39EFEE49FFF8D007900C3E89EBC
:0D060600E964808FF063F08095F0506DE5A1
:0B0613006B30E7408A828B838CF01272
:0C061E000779F5C9A3AA82AB83740125FB
:0A062A006B2461FE7F0078401D8DF7
:05063400117512008A9F
:040639000E8B0F8C89
:0C063D00108E828F8388F0C002C003C0C2
:0E06490004C0051206CCD005D004D003D002A8
:0A0657007401256B2461FE7F00781A
:07066100408D117512008AA3
:040668000E8B0F8C5A
:0C066C00108E828F8388F0C0051206CC2F
:07067800D005ED256BF56BC9
:01067F002258
:03028C00750900F1
:0306800005092247
:0E068300C0E0C0F0C082C083C002C003C0044B
:0E069100C005C006C007C000C001C0D075D0B3
:0E069F0000120680D0D0D001D000D007D006C7
:0E06AD00D005D004D003D002D083D082D0F08C
:0306BB00D0E0325A
:0206BE00AA820E
:0206C000780FB1
:0206C20079F4C9
:0606C400D9FED8FADAF6B7
:0206CA002222EA
:06024D00E4787FF6D8FD05
:0A06CC00AA82AB83ACF08A138B14F2
:0506D6008C15A80EA91F
:0406DB000FAD1088C7
:0406DF001689178DD4
:0406E30018A811A999
:0106E7001200
:0906E8008805890618B8FF011904
:0A06F100ED4E602585168285178303
:0A06FB008518F0120779FDA385822F
:0A070500168583178A828B838CF01F
:0B070F00ED120760A3AA82AB8380CE2E
:07071A00851382851483851D
:0307210015F022AE
:0807240085821185831285F026
:04072C0013AD11AE4A
:0407300012AF13A849
:030734000FA910FA
:090737008802890318B8FF0119BA
:0C074000EA4B60128D828E838FF0E50E74
:0A074C00120760A3AD82AE8380E1C6
:0707560085118285128385E5
:03075D0013F02274
:08022B007900E94400601B7A30
:0502330000900799781E
:030238000075A0AE
:0A023B0000E493F2A308B8000205E6
:08024500A0D9F4DAF275A0FF64
:0E07600020F71030F6118883A88220F507F6E6
:05076E00A88375830063
:010773002263
:03077400F280F719
:02077700F0226E
:080253007800E84400600A791C
:03025B000075A08B
:06025E0000E4F309D8FCE6
:080264007800E84400600C7909
:0B026C0000900000E4F0A3D8FCD9FAD9
:03021E00758118CF
:0A022100120795E5826003020292C5
:0E07790020F71430F6148883A88220F507E6D6
:06078700A8837583002227
:03078D00E280F710
:03079000E49322CD
:02079300E02262
:040795007582002247
:00000001FF
