:0400000002021E32A8
:01000B0032C2
:0100130032BA
:01001B0032B2
:0100230032AA
:01002B0032A2
:01003300329A
:01003B003292
:0300430002068032
:01004B003282
:01005300327A
:01005B003272
:01006300326A
:01006B003262
:01007300325A
:01007B003252
:01008300324A
:01008B003242
:01009300323A
:01009B003232
:0100A300322A
:0100AB003222
:0100B300321A
:0100BB003212
:0100C300320A
:0100CB003202
:0100D30032FA
:0100DB0032F2
:0100E30032EA
:0100EB0032E2
:0100F30032DA
:0100FB0032D2
:0101030032C9
:01010B0032C1
:0101130032B9
:03011B0002045B80
:0101230032A9
:01012B0032A1
:010133003299
:01013B003291
:010143003289
:01014B003281
:010153003279
:01015B003271
:010163003269
:01016B003261
:010173003259
:01017B003251
:010183003249
:01018B003241
:010193003239
:01019B003231
:0101A3003229
:0101AB003221
:0101B3003219
:0101BB003211
:0101C3003209
:0101CB003201
:0101D30032F9
:0301DB00020535E5
:0101E30032E9
:0101EB0032E1
:0101F30032D9
:0101FB0032D1
:0102030032C8
:01020B0032C0
:0102130032B8
:03021B0002035C7F
:03028F00020292D6
:0502920012029780FE3E
:0C0297007508FF7A007B00758E00758DE5
:0B02A300FC75980075C000750E00751A
:0602AE000F06E4F51090BC
:0E02B400002175F040C002C003120721D003E4
:0702C200D0027C218C27759E
:0A02C900280075294075C20175D3A5
:0E02D3000A75DB0075C800758902E4A28C3341
:0B02E100F58875A8D275E80153A5E36D
:0402EC0075760975A5
:0602F000770075784090D4
:0E02F600000875F040C002C0031205DFD003FF
:0E030400D002C293C374F49A74019B500FC2CE
:0E03120092C374E89A74039B50047A007B0037
:09032000B2940ABA00C60B80C3B6
:040277007527217551
:06027B0028007529407502
:03028100332A75A8
:06028400340075354075E1
:02028A006BFF08
:07032900AA82AB0EAC0FAD80
:03033000107E003C
:0C033300C3EE951150158B828C838DF069
:0E033F00120776FFA3AB82AC83EF28F80E8086
:01034D00E5CA
:08034E00E8B50204740180010E
:01035600E4C2
:05035700F58224FF22E5
:0E035C00C0E0C0F0C082C083C002C003C00475
:0E036A00C005C006C007C000C001C0D075D0DD
:0A03780000E5C820E76DAA27AB28B6
:0B038200AC298A828B838CF0E5C91245
:07038D00075D7421FAC3951E
:0A03940027FAE49528FBC3EA94035E
:0B039E00EB64809480500B0527E4B551
:0403A90027020528FA
:0303AD0002043D0A
:0603B0008525827A228AF5
:0503B6000E750F00753B
:0603BB0010407511031251
:0603C1000329501A756FBC
:0503C700457570007592
:0503CC007140C2009029
:0E03D100002175F040120536E4A29433F59039
:0503DF007A218A277558
:0703E400280075294080523A
:0903EB00E56B20E74D8561C97A3C
:0503F400627B007C406B
:0A03F900EAB46A0AEBB40006ECB4A3
:040403004002802A09
:0A040700EA24FFF56CEB34FFF56DFD
:0C0411008C6E8A828B838CF0120776FDC3
:0A041D00A3AA82AB83856C82856D73
:0A04270083856EF0ED12075D80C8BA
:0C0431008A828B838CF0E412075D156B4F
:0E043D005391EFD0D0D001D000D007D006D020
:0E044B0005D004D003D002D083D082D0F0D0F0
:02045900E0328F
:0E045B00C0E0C0F0C082C083C002C003C00475
:0E046900C005C006C007C000C001C0D075D0DD
:0A04770000E59830E056AA33AB34DC
:0B048100AC358A828B838CF0E5C91239
:07048C00075D742AFAC39515
:0A04930033FBE49534FCC3EB940640
:0B049D00EC64809480500A0533E4B545
:0604A8003324053480201E
:0604AE008A33753400756D
:0604B40035408532827A1A
:0404BA002A8A0E7507
:0604BE000F0075104075EF
:0A04C4001108120329500363A00180
:0504CE005398FE804779
:0504D300AA3AAB3BACAE
:0C04D8003CBA0008BB0005BC00028033E9
:0504E4000ABA00010B43
:0504E9008A3A8B3B8CF8
:0404EE003CAD3AAE39
:0604F2003BAF3CC3EA959C
:0604F80037EB9538EC958E
:0C04FE0039500D8D828E838FF01207762E
:04050A00F5998009D6
:07050E00753A00753B007512
:020515003C00A8
:030517005398FDF9
:0E051A00D0D0D001D000D007D006D005D0043C
:0D052800D003D002D083D082D0F0D0E032DA
:010535003293
:0805360085827285837385F054
:05053E0074E56FC39598
:0505430072FDE570955A
:0505480073FE8D75E556
:0C054D006BFE3395E0FF7409C39EFEE4D2
:0C0559009FFFAD757A00C3ED9EEA648040
:090565008FF063F08095F05070F6
:0A056E00E4A20033245FF88602EADD
:0A05780030E76320001085728285D1
:0605820073838574F01282
:060588000776F599800ED4
:07058E0085728285738385ED
:0705950074F0120776F5C1B6
:0A059C00E4A20033FB75F00AA4246A
:0C05A6004BFB74012A2BFB7A007C407494
:0705B200012572F50EE4358E
:0405B90073F50F8542
:0305BD00741015A2
:0305C000758575C9
:0A05C300117512008B828A838CF000
:0805CD001206C9E4A200332468
:0905D5005FF88602E5752AA6E034
:0105DE0022FA
:0C05DF00AA82AB83ACF0E576C39AFDE580
:0A05EB00779BE56BFE3395E0FF748B
:0E05F50009C39EFEE49FFF8D007900C3E89EBF
:0D060300E964808FF063F08095F0506DE5A4
:0B0610006B30E7408A828B838CF01275
:0C061B000776F5C9A3AA82AB8374012501
:0A0627006B2461FE7F0078401D8DFA
:05063100117512008AA2
:040636000E8B0F8C8C
:0C063A00108E828F8388F0C002C003C0C5
:0E06460004C0051206C9D005D004D003D002AE
:0A0654007401256B2461FE7F00781D
:07065E00408D117512008AA6
:040665000E8B0F8C5D
:0C066900108E828F8388F0C0051206C935
:07067500D005ED256BF56BCC
:01067C00225B
:03028C00750900F1
:03067D000509224A
:0E068000C0E0C0F0C082C083C002C003C0044E
:0E068E00C005C006C007C000C001C0D075D0B6
:0E069C000012067DD0D0D001D000D007D006CD
:0E06AA00D005D004D003D002D083D082D0F08F
:0306B800D0E0325D
:0206BB00AA8211
:0206BD00780FB4
:0206BF0079F4CC
:0606C100D9FED8FADAF6BA
:0206C7002222ED
:06024D00E4787FF6D8FD05
:0A06C900AA82AB83ACF08A138B14F5
:0506D3008C15A80EA922
:0406D8000FAD1088CA
:0406DC001689178DD7
:0406E00018A811A99C
:0106E4001203
:0906E5008805890618B8FF011907
:0A06EE00ED4E602585168285178306
:0A06F8008518F0120776FDA3858235
:0A070200168583178A828B838CF022
:0B070C00ED12075DA3AA82AB8380CE34
:070717008513828514838520
:03071E0015F022B1
:0807210085821185831285F029
:0407290013AD11AE4D
:04072D0012AF13A84C
:030731000FA910FD
:090734008802890318B8FF0119BD
:0C073D00EA4B60128D828E838FF0E50E77
:0A07490012075DA3AD82AE8380E1CC
:0707530085118285128385E8
:03075A0013F02277
:08022B007900E94400601B7A30
:05023300009007967821
:030238000075A0AE
:0A023B0000E493F2A308B8000205E6
:08024500A0D9F4DAF275A0FF64
:0E075D0020F71030F6118883A88220F507F6E9
:05076B00A88375830066
:010770002266
:03077100F280F71C
:02077400F02271
:080253007800E84400600A791C
:03025B000075A08B
:06025E0000E4F309D8FCE6
:080264007800E84400600C7909
:0B026C0000900000E4F0A3D8FCD9FAD9
:03021E00758118CF
:0A022100120792E5826003020292C8
:0E07760020F71430F6148883A88220F507E6D9
:06078400A883758300222A
:03078A00E280F713
:03078D00E49322D0
:02079000E02265
:04079200758200224A
:00000001FF
